{
  "contractName": "Masterblock",
  "abi": [
    {
      "anonymous": false,
      "inputs": [
        {
          "indexed": false,
          "internalType": "uint256",
          "name": "_attempts",
          "type": "uint256"
        }
      ],
      "name": "LogAttempts",
      "type": "event"
    },
    {
      "anonymous": false,
      "inputs": [
        {
          "indexed": false,
          "internalType": "uint256",
          "name": "_checkCorrectRef",
          "type": "uint256"
        }
      ],
      "name": "LogCheckCorrect",
      "type": "event"
    },
    {
      "anonymous": false,
      "inputs": [
        {
          "indexed": false,
          "internalType": "address",
          "name": "_player",
          "type": "address"
        }
      ],
      "name": "LogGameBegin",
      "type": "event"
    },
    {
      "anonymous": false,
      "inputs": [
        {
          "indexed": true,
          "internalType": "address",
          "name": "previousOwner",
          "type": "address"
        },
        {
          "indexed": true,
          "internalType": "address",
          "name": "newOwner",
          "type": "address"
        }
      ],
      "name": "OwnershipTransferred",
      "type": "event"
    },
    {
      "inputs": [],
      "name": "attempts",
      "outputs": [
        {
          "internalType": "uint256",
          "name": "",
          "type": "uint256"
        }
      ],
      "stateMutability": "view",
      "type": "function",
      "constant": true
    },
    {
      "inputs": [],
      "name": "checkCorrect",
      "outputs": [
        {
          "internalType": "uint256",
          "name": "",
          "type": "uint256"
        }
      ],
      "stateMutability": "view",
      "type": "function",
      "constant": true
    },
    {
      "inputs": [],
      "name": "owner",
      "outputs": [
        {
          "internalType": "address",
          "name": "",
          "type": "address"
        }
      ],
      "stateMutability": "view",
      "type": "function",
      "constant": true
    },
    {
      "inputs": [],
      "name": "renounceOwnership",
      "outputs": [],
      "stateMutability": "nonpayable",
      "type": "function"
    },
    {
      "inputs": [
        {
          "internalType": "address",
          "name": "newOwner",
          "type": "address"
        }
      ],
      "name": "transferOwnership",
      "outputs": [],
      "stateMutability": "nonpayable",
      "type": "function"
    },
    {
      "inputs": [
        {
          "internalType": "uint256",
          "name": "_rand1",
          "type": "uint256"
        },
        {
          "internalType": "uint256",
          "name": "_rand2",
          "type": "uint256"
        },
        {
          "internalType": "uint256",
          "name": "_rand3",
          "type": "uint256"
        },
        {
          "internalType": "uint256",
          "name": "_rand4",
          "type": "uint256"
        }
      ],
      "name": "setValues",
      "outputs": [
        {
          "internalType": "bool",
          "name": "",
          "type": "bool"
        }
      ],
      "stateMutability": "nonpayable",
      "type": "function"
    },
    {
      "inputs": [
        {
          "internalType": "uint256",
          "name": "i",
          "type": "uint256"
        }
      ],
      "name": "get",
      "outputs": [
        {
          "internalType": "uint256",
          "name": "",
          "type": "uint256"
        }
      ],
      "stateMutability": "view",
      "type": "function",
      "constant": true
    },
    {
      "inputs": [],
      "name": "getAttempts",
      "outputs": [
        {
          "internalType": "uint256",
          "name": "",
          "type": "uint256"
        }
      ],
      "stateMutability": "view",
      "type": "function",
      "constant": true
    },
    {
      "inputs": [],
      "name": "getCorrect",
      "outputs": [
        {
          "internalType": "uint256",
          "name": "",
          "type": "uint256"
        }
      ],
      "stateMutability": "view",
      "type": "function",
      "constant": true
    },
    {
      "inputs": [],
      "name": "gotWinner",
      "outputs": [
        {
          "internalType": "bool",
          "name": "",
          "type": "bool"
        }
      ],
      "stateMutability": "view",
      "type": "function",
      "constant": true
    },
    {
      "inputs": [
        {
          "internalType": "uint8",
          "name": "try_a",
          "type": "uint8"
        },
        {
          "internalType": "uint8",
          "name": "try_b",
          "type": "uint8"
        },
        {
          "internalType": "uint8",
          "name": "try_c",
          "type": "uint8"
        },
        {
          "internalType": "uint8",
          "name": "try_d",
          "type": "uint8"
        }
      ],
      "name": "gameMove",
      "outputs": [],
      "stateMutability": "nonpayable",
      "type": "function"
    }
  ],
  "bytecode": "0x60806040526000600260006101000a81548160ff0219169083151502179055506000600355600060045534801561003557600080fd5b5061005261004761005760201b60201c565b61005f60201b60201c565b610123565b600033905090565b60008060009054906101000a900473ffffffffffffffffffffffffffffffffffffffff169050816000806101000a81548173ffffffffffffffffffffffffffffffffffffffff021916908373ffffffffffffffffffffffffffffffffffffffff1602179055508173ffffffffffffffffffffffffffffffffffffffff168173ffffffffffffffffffffffffffffffffffffffff167f8be0079c531659141344cd1fd0a4f28419497f9722a3daafe3b4186f6b6457e060405160405180910390a35050565b610c5d806101326000396000f3fe608060405234801561001057600080fd5b50600436106100a95760003560e01c80638da5cb5b116100715780638da5cb5b146101405780638dedcf751461015e5780639507d39a1461017c578063cc7c4c39146101ac578063d33ad364146101ca578063f2fde38b146101e8576100a9565b8063105b8a48146100ae57806345152df9146100cc5780635754a042146100e8578063715018a614610106578063862b668314610110575b600080fd5b6100b6610204565b6040516100c39190610a64565b60405180910390f35b6100e660048036038101906100e19190610918565b61020e565b005b6100f0610338565b6040516100fd9190610a64565b60405180910390f35b61010e61033e565b005b61012a600480360381019061012591906108b5565b6103c6565b6040516101379190610a09565b60405180910390f35b610148610551565b60405161015591906109ee565b60405180910390f35b61016661057a565b6040516101739190610a64565b60405180910390f35b6101966004803603810190610191919061088c565b610580565b6040516101a39190610a64565b60405180910390f35b6101b46105ce565b6040516101c19190610a09565b60405180910390f35b6101d26105ec565b6040516101df9190610a64565b60405180910390f35b61020260048036038101906101fd9190610863565b6105f6565b005b6000600354905090565b600061021a6000610580565b8560ff161415610234576001816102319190610a90565b90505b61023e6001610580565b8460ff161415610258576001816102559190610a90565b90505b6102626002610580565b8360ff16141561027c576001816102799190610a90565b90505b6102866003610580565b8260ff1614156102a05760018161029d9190610a90565b90505b6001600460008282546102b39190610a90565b925050819055507fbea3e00d9037818d337e6eaa5418658ef2a77b665fe0af5c9b3df21c79cbc6f86004546040516102eb9190610a64565b60405180910390a1806003819055507f511dfaddb836ac9d4360484701d171d60fe1f5da44b432547416479a20ae29cc816040516103299190610a64565b60405180910390a15050505050565b60045481565b6103466106ee565b73ffffffffffffffffffffffffffffffffffffffff16610364610551565b73ffffffffffffffffffffffffffffffffffffffff16146103ba576040517f08c379a00000000000000000000000000000000000000000000000000000000081526004016103b190610a44565b60405180910390fd5b6103c460006106f6565b565b60006103d06106ee565b73ffffffffffffffffffffffffffffffffffffffff166103ee610551565b73ffffffffffffffffffffffffffffffffffffffff1614610444576040517f08c379a000000000000000000000000000000000000000000000000000000000815260040161043b90610a44565b60405180910390fd5b600085118015610455575060048511155b61045e57600080fd5b60008411801561046f575060048411155b61047857600080fd5b600083118015610489575060048311155b61049257600080fd5b6000821180156104a3575060048211155b6104ac57600080fd5b60405180608001604052808681526020018581526020018481526020018381525060019060046104dd9291906107ba565b507f6b8e536173dd377f9f63d917a40b6cf6937e2f6a5870cb8e349efecf1cebcd04610507610551565b60405161051491906109ee565b60405180910390a16001600260006101000a81548160ff021916908315150217905550600260009054906101000a900460ff169050949350505050565b60008060009054906101000a900473ffffffffffffffffffffffffffffffffffffffff16905090565b60035481565b6000600182815481106105bc577f4e487b7100000000000000000000000000000000000000000000000000000000600052603260045260246000fd5b90600052602060002001549050919050565b60008060009050600460035414156105e557600190505b8091505090565b6000600454905090565b6105fe6106ee565b73ffffffffffffffffffffffffffffffffffffffff1661061c610551565b73ffffffffffffffffffffffffffffffffffffffff1614610672576040517f08c379a000000000000000000000000000000000000000000000000000000000815260040161066990610a44565b60405180910390fd5b600073ffffffffffffffffffffffffffffffffffffffff168173ffffffffffffffffffffffffffffffffffffffff1614156106e2576040517f08c379a00000000000000000000000000000000000000000000000000000000081526004016106d990610a24565b60405180910390fd5b6106eb816106f6565b50565b600033905090565b60008060009054906101000a900473ffffffffffffffffffffffffffffffffffffffff169050816000806101000a81548173ffffffffffffffffffffffffffffffffffffffff021916908373ffffffffffffffffffffffffffffffffffffffff1602179055508173ffffffffffffffffffffffffffffffffffffffff168173ffffffffffffffffffffffffffffffffffffffff167f8be0079c531659141344cd1fd0a4f28419497f9722a3daafe3b4186f6b6457e060405160405180910390a35050565b8280548282559060005260206000209081019282156107f6579160200282015b828111156107f55782518255916020019190600101906107da565b5b5090506108039190610807565b5090565b5b80821115610820576000816000905550600101610808565b5090565b60008135905061083381610be2565b92915050565b60008135905061084881610bf9565b92915050565b60008135905061085d81610c10565b92915050565b60006020828403121561087557600080fd5b600061088384828501610824565b91505092915050565b60006020828403121561089e57600080fd5b60006108ac84828501610839565b91505092915050565b600080600080608085870312156108cb57600080fd5b60006108d987828801610839565b94505060206108ea87828801610839565b93505060406108fb87828801610839565b925050606061090c87828801610839565b91505092959194509250565b6000806000806080858703121561092e57600080fd5b600061093c8782880161084e565b945050602061094d8782880161084e565b935050604061095e8782880161084e565b925050606061096f8782880161084e565b91505092959194509250565b61098481610ae6565b82525050565b61099381610af8565b82525050565b60006109a6602683610a7f565b91506109b182610b6a565b604082019050919050565b60006109c9602083610a7f565b91506109d482610bb9565b602082019050919050565b6109e881610b24565b82525050565b6000602082019050610a03600083018461097b565b92915050565b6000602082019050610a1e600083018461098a565b92915050565b60006020820190508181036000830152610a3d81610999565b9050919050565b60006020820190508181036000830152610a5d816109bc565b9050919050565b6000602082019050610a7960008301846109df565b92915050565b600082825260208201905092915050565b6000610a9b82610b24565b9150610aa683610b24565b9250827fffffffffffffffffffffffffffffffffffffffffffffffffffffffffffffffff03821115610adb57610ada610b3b565b5b828201905092915050565b6000610af182610b04565b9050919050565b60008115159050919050565b600073ffffffffffffffffffffffffffffffffffffffff82169050919050565b6000819050919050565b600060ff82169050919050565b7f4e487b7100000000000000000000000000000000000000000000000000000000600052601160045260246000fd5b7f4f776e61626c653a206e6577206f776e657220697320746865207a65726f206160008201527f6464726573730000000000000000000000000000000000000000000000000000602082015250565b7f4f776e61626c653a2063616c6c6572206973206e6f7420746865206f776e6572600082015250565b610beb81610ae6565b8114610bf657600080fd5b50565b610c0281610b24565b8114610c0d57600080fd5b50565b610c1981610b2e565b8114610c2457600080fd5b5056fea264697066735822122098c7caec80d67119a614bf435794f32d79f8403c0bd927c26248d5cf9f03783564736f6c63430008030033",
  "immutableReferences": {},
  "source": "// SPDX-License-Identifier: MIT\npragma solidity ^0.8.3;\n\nimport 'openzeppelin-solidity/contracts/access/Ownable.sol';\n\n/// @title Masterblock - guess the block code before the blockchain\n/// @author Alejandro Fraga\n/// @notice This contract was developed for Consensys Academy Final Project\n\ncontract Masterblock is Ownable {\n    // initialize an array\n    uint[] private combination;\n    bool private gameStarted = false;\n    uint public checkCorrect = 0;\n    uint public attempts = 0;\n\n    event LogGameBegin(address _player);\n    event LogCheckCorrect(uint _checkCorrectRef);\n    event LogAttempts(uint _attempts);    \n\n    // Support functions\n    \n    /// @notice Set the values to be guessed\n    /// @dev Assign the combination passed to the array\n    function setValues(uint _rand1, uint _rand2, uint _rand3, uint _rand4) public onlyOwner returns (bool){\n        // validating inputs\n        require((_rand1 > 0) && (_rand1 <= 4));\n        require((_rand2 > 0) && (_rand2 <= 4));\n        require((_rand3 > 0) && (_rand3 <= 4));\n        require((_rand4 > 0) && (_rand4 <= 4));        \n        combination = [_rand1, _rand2, _rand3, _rand4];\n        emit LogGameBegin(owner());\n        // From this point the game is on\n        gameStarted = true;\n        return gameStarted;\n    }\n\n    /// @notice Get the value at the position requested\n    /// @dev Returns the value from the combination array\n    function get (uint i) public view returns (uint) {\n        return combination[i];\n    }\n    \n    /// @notice Function exposed for the interface to track the number of attempts\n    /// @dev Returns the number of attempts\n    function getAttempts() public view returns(uint) {\n        return attempts;\n    }\n\n    /// @notice Function exposed for the interface to provide feedback to user about correct tries\n    /// @dev Returns an integer representing the number of correct attempts\n    function getCorrect() public view returns(uint) {\n        return checkCorrect;\n    }   \n\n    /// @notice Function exposed for to check if combination is correct\n    /// @dev Returns a bool indicating the status for the combination\n    function gotWinner() public view returns(bool) {\n        bool _gotWinner = false;\n        if (checkCorrect == 4) {\n            _gotWinner = true;\n        }    \n        \n        return _gotWinner;        \n    }        \n\n    \n    // Game operations\n    \n    /// @notice Check the combination assigned at start vs user attempt using their value and position\n    /// @dev Returns true if the number and position is correct   \n    function gameMove(uint8 try_a, uint8 try_b, uint8 try_c, uint8 try_d) public {\n        uint _checkCorrect = 0;\n        // validate each attempt\n        if (try_a == get(0)) {\n            _checkCorrect += 1;\n        }\n        if (try_b == get(1)) {\n            _checkCorrect += 1;\n        } \n        if (try_c == get(2)) {\n            _checkCorrect += 1;\n        } \n        if (try_d == get(3)) {\n            _checkCorrect += 1;\n        }\n        // updating contract variables\n        attempts += 1;\n        emit LogAttempts(attempts);\n        checkCorrect = _checkCorrect;\n        emit LogCheckCorrect(_checkCorrect);\n    }\n\n}\n",
  "sourcePath": "/home/alefrasan1007/bootcamp-final-project/src/contracts/Masterblock.sol",
  "compiler": {
    "name": "solc",
    "version": "0.8.3+commit.8d00100c.Emscripten.clang"
  },
  "schemaVersion": "3.4.3",
  "updatedAt": "2021-11-30T15:00:31.465Z",
  "networkType": "ethereum",
  "devdoc": {
    "author": "Alejandro Fraga",
    "kind": "dev",
    "methods": {
      "gameMove(uint8,uint8,uint8,uint8)": {
        "details": "Returns true if the number and position is correct   "
      },
      "get(uint256)": {
        "details": "Returns the value from the combination array"
      },
      "getAttempts()": {
        "details": "Returns the number of attempts"
      },
      "getCorrect()": {
        "details": "Returns an integer representing the number of correct attempts"
      },
      "gotWinner()": {
        "details": "Returns a bool indicating the status for the combination"
      },
      "owner()": {
        "details": "Returns the address of the current owner."
      },
      "renounceOwnership()": {
        "details": "Leaves the contract without owner. It will not be possible to call `onlyOwner` functions anymore. Can only be called by the current owner. NOTE: Renouncing ownership will leave the contract without an owner, thereby removing any functionality that is only available to the owner."
      },
      "setValues(uint256,uint256,uint256,uint256)": {
        "details": "Assign the combination passed to the array"
      },
      "transferOwnership(address)": {
        "details": "Transfers ownership of the contract to a new account (`newOwner`). Can only be called by the current owner."
      }
    },
    "title": "Masterblock - guess the block code before the blockchain",
    "version": 1
  },
  "userdoc": {
    "kind": "user",
    "methods": {
      "gameMove(uint8,uint8,uint8,uint8)": {
        "notice": "Check the combination assigned at start vs user attempt using their value and position"
      },
      "get(uint256)": {
        "notice": "Get the value at the position requested"
      },
      "getAttempts()": {
        "notice": "Function exposed for the interface to track the number of attempts"
      },
      "getCorrect()": {
        "notice": "Function exposed for the interface to provide feedback to user about correct tries"
      },
      "gotWinner()": {
        "notice": "Function exposed for to check if combination is correct"
      },
      "setValues(uint256,uint256,uint256,uint256)": {
        "notice": "Set the values to be guessed"
      }
    },
    "notice": "This contract was developed for Consensys Academy Final Project",
    "version": 1
  }
}